:04000000B5EF1DF04B
:1038D000120001EC1DF012008082809212000001A3
:1038E000B8511200016E01C0B8F01200080ED56E7A
:1038F000D58E1200B2C001F0B3C002F0120003C0B6
:10390000B2F004C0B3F01200F2A489EF1CF08BEF08
:103910001CF084EF1CF01200000E396E300E386E71
:103920003F50010B4FEC22F01200C1EC1CF055ECA3
:1039300021F0000E0001B76F000EB66F1200016E8D
:103940009EA8A5EF1CF0A7EF1CF0A0EF1CF001C093
:10395000ADFF1200000E0F6E300E0E6E48EC1EF022
:10396000010E0E14136E146A1200000E016E012A6D
:10397000430E0164BEEF1CF0C0EF1CF0B7EF1CF06B
:1039800012002C0EAC6E900EAB6E080EB86E000ED0
:10399000B06E220EAF6E948C948E1200036E010EE8
:1039A000016E035020EC20F0010E016E0338F00B85
:1039B00020EC20F0B5EC1CF01200D8900134036E1E
:1039C0000234046E031E041E320E035E000E045AFF
:1039D0000450D76E03C0D6FFF294120001500302C8
:1039E000F3CF05F0F4CF06F001500402F3500626A1
:1039F00002500302F350062605C001F006C002F093
:103A00001200000E026E080E016E000E046E010E12
:103A1000036EC4EC28F0000E026E090E016E000E5B
:103A2000046E010E036EC4EC28F01200000E026E4C
:103A3000090E016E000E046E000E036EC4EC28F039
:103A4000000E026E090E016E000E046E000E036E73
:103A5000EBEC29F01200000E026E080E016E000E53
:103A6000046E000E036EC4EC28F0000E026E080E09
:103A7000016E000E046E000E036EEBEC29F01200D6
:103A8000000E016EABA247EF1DF049EF1DF04BEFAA
:103A90001DF0AB98AB889EAA50EF1DF052EF1DF0C1
:103AA00054EF1DF0AECF01F001501200000E016E78
:103AB000000E026E022AB10E026461EF1DF063EF88
:103AC0001DF05AEF1DF0012A130E01646AEF1DF07C
:103AD0006CEF1DF058EF1DF01200000E946E000EFA
:103AE000026E110E016E000E046E000E036EEBEC02
:103AF00029F0000E026E120E016E000E046E000E12
:103B0000036EEBEC29F012002BEC1DF068EC1CF0BE
:103B1000D0EC1DF00009D8B490EF1DF092EF1DF02D
:103B200088EF1DF068EC1CF0ECEC1DF068EC1CF06C
:103B3000000E0001BC6F1200ECEC1DF068EC1CF0F4
:103B4000D0EC1DF00009D8B4A8EF1DF0AAEF1DF0CD
:103B5000A0EF1DF0ECEC1DF0076E68EC1CF016EC0D
:103B60001DF068EC1CF007501200680EF66E3D0E5A
:103B7000F76E000EF86E00EE60F010EE50F00900E7
:103B8000F5CFEEFFE550E150FAE100EEB0F02D0E7A
:103B9000EE6AE806FDE1000EF86E000108EF1EF087
:103BA000000E026E090E016E000E046E010E036E11
:103BB000C4EC28F0000E026E090E016EA0EC25F098
:103BC00001500210D8A4E7EF1DF0EAEF1DF0010E3E
:103BD000EBEF1DF0000E1200000E026E080E016EDB
:103BE000000E046E010E036EC4EC28F0000E026E8F
:103BF000080E016EA0EC25F001500210D8A403EFCE
:103C00001EF006EF1EF0010E07EF1EF0000E120070
:103C100055EC21F05CEC20F076EC1CF000EC25F08B
:103C200095EC1CF026EC1EF069EC1CF06DEC1DF020
:103C3000050E026EDC0E016EDDEC1CF0F6EC31F0D0
:103C400084EC1CF018EF1EF000EF00F0000E026E86
:103C50000A0E016E000E046E010E036EC4EC28F015
:103C6000000E026E220E016E000E046E010E036E37
:103C7000C4EC28F0000E026E0C0E016E000E046EF5
:103C8000010E036EC4EC28F0C280AA0EC06E1200B2
:103C9000000E086EDE0E096E010E88EC1FF0000E9D
:103CA000086E0EC009F0000E88EC1FF0000E086EC2
:103CB000DF0E096E010E88EC1FF0010E086E010E7A
:103CC000DCEC1EF0106E1050116E126A11C00EF076
:103CD00012C00FF01200036E000E016E035020ECB4
:103CE00020F0000E016E0338F00B20EC20F0020EE5
:103CF0000318D8B47EEF1EF080EF1EF088EF1EF0A0
:103D00000304D8A486EF1EF088EF1EF08CEF1EF09F
:103D100056EC1DF08EEF1EF0B5EC1CF01200000109
:103D2000BC51D8B496EF1EF098EF1EF0A8EF1EF02D
:103D3000ECEC1DF068EC1CF0D0EC1DF00009D8B4E0
:103D4000A4EF1EF0A6EF1EF09CEF1EF068EC1CF036
:103D5000ECEC1DF02BEC1DF068EC1CF016EC1DF0EB
:103D6000010E0001BC6F1200CE7FCE7F447F147F16
:103D7000247F247F347F347FE17FD87FE17FD87F29
:103D8000E17FD87FE17FD87FC47FC47F747FB47F19
:103D9000847F037F847F037F547FE17E947FBF7E97
:103DA000647FF27EA47FD07E867E297E687E497EF7
:103DB000EA7FF47FEF7FF97F0A6E000E0D6E000E32
:103DC0000C6E000E0B6E9CEC1DF0096E0D500D2458
:103DD00009100D6E0B4A0C2A0C5009E1080E0B5C01
:103DE000D8A0F5EF1EF0F7EF1EF0E3EF1EF00A503B
:103DF0005CEC1FF00850D8B400EF1FF002EF1FF08A
:103E000004EF1FF084EC1DF00D50120046504710D7
:103E1000D8A40DEF1FF00FEF1FF019EF1FF0000EE9
:103E2000436E070E426EEAEC27F042C048F043C0F2
:103E300049F046044710D8A420EF1FF022EF1FF0EE
:103E40002CEF1FF0000E436E0B0E426EEAEC27F0D3
:103E500042C048F043C049F048C046F049C047F06E
:103E60001200000E096E000E086E47EF1FF008509A
:103E70000424066E09500520076E06C0F6FF07C031
:103E8000F7FF0800F550CEEC1CF0084A092A08504C
:103E90000424066E09500520076E06C0F6FF07C011
:103EA000F7FF0800F5500009D8A459EF1FF05BEFA9
:103EB0001FF037EF1FF01200076E0750D8B463EF02
:103EC0001FF065EF1FF069EF1FF0ECEC1DF06BEFDA
:103ED0001FF02BEC1DF068EC1CF0D0EC1DF000097D
:103EE000D8B475EF1FF077EF1FF06DEF1FF007509C
:103EF000D8B47DEF1FF07FEF1FF081EF1FF0ECECE7
:103F00001DF068EC1CF016EC1DF068EC1CF01200C3
:103F10000A6E0A50D8B48FEF1FF091EF1FF093EFA5
:103F20001FF08FEC1EF0000E0B6E09BE9AEF1FF013
:103F30009DEF1FF0010E9EEF1FF0000E5CEC1FF0D6
:103F4000D89009360B2A070E0B64A9EF1FF0ABEFD0
:103F50001FF095EF1FF09CEC1DF00850D8B4B3EFA4
:103F60001FF0B5EF1FF0B7EF1FF084EC1DF012004B
:103F7000D2EF1FF0000E026E110E016E000E046EE5
:103F8000000E036EEBEC29F0E8EF1FF0000E026E5E
:103F9000120E016E000E046E000E036EEBEC29F0A3
:103FA000E8EF1FF007C009F008C00AF00A50000A45
:103FB000D8B4DDEF1FF0E8EF1FF00950010AD8B4C4
:103FC000BAEF1FF0030AD8B4C6EF1FF0E8EF1FF0F6
:103FD0001200000E0001B96FB9C001F0010E026EAF
:103FE000012AF5EF1FF0D8900236012EF3EF1FF0F3
:103FF000025083140009D8A400EF20F002EF20F053
:1040000005EF20F00001B929BB6F0001B92B040EA8
:10401000B9650DEF20F00FEF20F0ECEF1FF0BA5173
:10402000BB19D8A416EF20F018EF20F01CEF20F0F9
:10403000000EBB6F1EEF20F0BBC0BAF0BB511200E8
:10404000026E0150D8B427EF20F029EF20F02CEFBA
:1040500020F080802DEF20F0809002AE32EF20F033
:1040600034EF20F037EF20F0808A38EF20F0809A8C
:1040700002AC3DEF20F03FEF20F042EF20F08088CF
:1040800043EF20F0809802AA48EF20F04AEF20F09A
:104090004DEF20F080864EEF20F0809602A853EF7F
:1040A00020F055EF20F058EF20F0808459EF20F0F9
:1040B00080946CEC1CF01200000E926E639A0F0E4E
:1040C000C16E8090000E046E56EC1DF0042A060EA0
:1040D00004646DEF20F06FEF20F064EF20F0000E2D
:1040E000016E300E20EC20F056EC1DF0000E016E3B
:1040F000300E20EC20F056EC1DF0000E016E300E5C
:1041000020EC20F056EC1DF0000E016E200E20EC8D
:1041100020F056EC1DF0280E6BEC1EF0060E6BEC3A
:104120001EF00F0E6BEC1EF0010E6BEC1EF0120079
:10413000000E076E000E066EB8EF20F00650022447
:10414000046E07500320056E04C0F6FF05C0F7FF9C
:10415000F86A070EF76403D00800F55005D0F6CFD3
:10416000E9FFF7CFEAFFEF509FEC1CF0064A072A61
:1041700006500224046E07500320056E04C0F6FFAB
:1041800005C0F7FFF86A070EF76403D00800F55082
:1041900005D0F6CFE9FFF7CFEAFFEF500009D8A42A
:1041A000D4EF20F0D6EF20F09EEF20F01200000EAA
:1041B000046E640E036E4AC001F04BC002F0EDECD9
:1041C00021F001C009F002C00AF0000E0C6E0A0EC8
:1041D0000B6E95EC21F00950300FCEEC1CF0000E68
:1041E000046E0A0E036E4AC001F04BC002F0EDEC03
:1041F00021F001C009F002C00AF0000E0C6E0A0E98
:104200000B6E95EC21F00950300FCEEC1CF04AC03B
:1042100009F04BC00AF0000E0C6E0A0E0B6E95EC06
:1042200021F00950300FCEEC1CF01200000E046E8D
:10423000640E036E51C001F052C002F0EDEC21F0AB
:1042400001C009F002C00AF0000E0C6E0A0E0B6EDF
:1042500095EC21F00950300F9FEC1CF0000E046E1D
:104260000A0E036E51C001F052C002F0EDEC21F0D5
:1042700001C009F002C00AF0000E0C6E0A0E0B6EAF
:1042800095EC21F00950300F9FEC1CF051C009F063
:1042900052C00AF0000E0C6E0A0E0B6E95EC21F067
:1042A0000950300F9FEC1CF01200000E966E848EA9
:1042B000000E026E270E016E000E046E000E036EDD
:1042C000C4EC28F0000E026E180E016E000E046E93
:1042D000010E036EC4EC28F0000E026E190E016E82
:1042E000000E046E010E036EC4EC28F0000E026E88
:1042F0001A0E016E000E046E010E036EC4EC28F05F
:10430000000E026E1B0E016E000E046E010E036E97
:10431000C4EC28F0000E026E1C0E016E000E046E3E
:10432000010E036EC4EC28F01200000E0E6E0ABEE1
:104330009EEF21F09CEF21F0A4EF21F0096C0A1E02
:10434000D8B00A2A010E0E6E0CBEABEF21F0A9EF19
:1043500021F0AFEF21F00B6C0C1ED8B00C2A0B50E3
:104360000C10D8B4B6EF21F0B8EF21F0DCEF21F05B
:10437000010E0D6EC0EF21F0D8900B360C360D2AD1
:104380000CAEC5EF21F0C7EF21F0BCEF21F00B50D0
:10439000095C0C500A58D8A0D0EF21F0D2EF21F0E0
:1043A000D6EF21F00B50095E0C500A5AD8900C320F
:1043B0000B320D2EC7EF21F00E50D8B4E2EF21F0F2
:1043C000E4EF21F0E8EF21F0096C0A1ED8B00A2AC8
:1043D00009C009F00AC00AF01200000E066E04BE01
:1043E000F6EF21F0F4EF21F0FCEF21F0036C041E56
:1043F000D8B0042A010E066E02BE03EF22F001EFD0
:1044000022F009EF22F0016C021ED8B0022A010E40
:10441000061A000E086E000E076E03500410D8B482
:1044200014EF22F016EF22F03EEF22F0010E056E9F
:104430001EEF22F0D89003360436052A04AE23EF8F
:1044400022F025EF22F01AEF22F0D8900736083636
:104450000350015C04500258D8A031EF22F033EF32
:1044600022F038EF22F00350015E0450025A078018
:10447000D89004320332052E25EF22F00650D8B42E
:1044800044EF22F046EF22F04AEF22F0076C081EBC
:10449000D8B0082A07C001F008C002F012003A6E36
:1044A000000E086EDE0E096E010E88EC1FF0000E85
:1044B000086E38C009F0000E88EC1FF0010E086E7F
:1044C0003AC009F0000E88EC1FF03BC001F03CC080
:1044D00002F03DC003F03EC004F0000E056E000E79
:1044E000066EC80E076E420E086EFBEC23F0D8A0D5
:1044F0007CEF22F07EEF22F080EF22F0B3EF22F08B
:104500003BC028F03CC029F03DC02AF03EC02BF053
:10451000000E2C6E000E2D6E800E2E6E3F0E2F6E36
:1045200096EC2FF028C03BF029C03CF02AC03DF0AB
:104530002BC03EF03BC001F03CC002F03DC003F098
:104540003EC004F0000E056E000E066EC80E076E2B
:10455000420E086EFBEC23F0D8A0B1EF22F0B3EFCF
:1045600022F080EF22F012004C504D10D8A4BBEF87
:1045700022F0BDEF22F0ECEF22F04AC046F04BC033
:1045800047F006EC1FF046C04EF047C04FF04AC05F
:1045900013F04BC014F04CC015F04DC016F082EC77
:1045A00023F013504E5C4F50800A506E1450800A16
:1045B0005058D8A0DEEF22F0E0EF22F0E6EF22F034
:1045C000000E4B6E010E4A6E1AEF23F0000E4B6E7A
:1045D000000E4A6E1AEF23F04C044D10D8A4F3EFEE
:1045E00022F0F5EF22F01AEF23F04AC013F04BC08F
:1045F00014F04CC015F04DC016F082EC23F013C03F
:104600004EF014C04FF04AC046F04BC047F006ECE5
:104610001FF046504E5C4F50800A506E4750800A43
:104620005058D8A016EF23F018EF23F0E6EF22F051
:10463000E0EF22F012006BEF23F0000E026E110E7D
:10464000016EA0EC25F001500210D8B42AEF23F03F
:104650002CEF23F038EF23F0000E026E110E016EE6
:10466000000E046E000E036EEBEC29F081EF23F0D8
:10467000000E026E110E016E000E046E010E036E2E
:10468000EBEC29F081EF23F0000E026E120E016EAA
:10469000A0EC25F001500210D8B451EF23F053EFF5
:1046A00023F05FEF23F0000E026E120E016E000E7B
:1046B000046E000E036EEBEC29F081EF23F0000E88
:1046C000026E120E016E000E046E010E036EEBEC14
:1046D00029F081EF23F007C009F008C00AF00A5062
:1046E000000AD8B476EF23F081EF23F00950010AD5
:1046F000D8B41DEF23F0030AD8B444EF23F081EFC0
:1047000023F0120013501410D8A489EF23F08BEF7C
:1047100023F0C1EF23F0ABEF23F0000E0F6E210E5C
:104720000E6E48EC1EF00EC013F00FC014F0FAEF3E
:1047300023F0000E0F6E200E0E6E48EC1EF00EC021
:1047400013F00FC014F0FAEF23F0000E146E000EF9
:10475000136EFAEF23F015C017F016C018F01850BA
:10476000000AD8B4B6EF23F0A5EF23F01750000AE3
:10477000D8B48DEF23F0010AD8B499EF23F0A5EF58
:1047800023F013041410D8A4C8EF23F0CAEF23F0C9
:10479000FAEF23F0E4EF23F0000E0F6E230E0E6EFF
:1047A00048EC1EF00EC013F00FC014F0FAEF23F027
:1047B000000E0F6E220E0E6E48EC1EF00EC013F0AF
:1047C0000FC014F0FAEF23F015C017F016C018F060
:1047D0001850000AD8B4EFEF23F0A5EF23F01750DC
:1047E000000AD8B4CCEF23F0010AD8B4D8EF23F0F4
:1047F000A5EF23F01200000E0114096E000E021442
:104800000A6E800E03140B6E7F0E04140C6E09509A
:104810000A100B100C10D8A410EF24F012EF24F0A3
:104820001AEF24F0000E016E000E026E000E036EF1
:10483000000E046E000E0514096E000E06140A6EBA
:10484000800E07140B6E7F0E08140C6E09500A10B0
:104850000B100C10D8A42FEF24F031EF24F039EF17
:1048600024F0000E056E000E066E000E076E000EA0
:10487000086E04AE3EEF24F040EF24F049EF24F040
:10488000016C021ED8B0022A031ED8B0032A800E83
:10489000045608AE4EEF24F050EF24F059EF24F008
:1048A000056C061ED8B0062A071ED8B0072A800E4F
:1048B0000856000E011A000E021A000E031A800E8E
:1048C000041A000E051A000E061A000E071A800EB2
:1048D000081A0550015C065002580750035808504A
:1048E0000458D8B076EF24F078EF24F07BEF24F072
:1048F000D8907CEF24F0D88012003A343B34416EDB
:104900004150D8A486EF24F088EF24F092EF24F0F1
:10491000000E386E000E396E000E3A6E000E3B6EC1
:10492000FFEF24F038C03CF039C03DF03AC03EF013
:104930003BC03FF0200EA2EF24F0D8903F323E3231
:104940003D323C32E82E9DEF24F03C50406E3A8ED2
:10495000FF0E3816FF0E3916FF0E3A16000E3B16E4
:10496000960E415E41BEB9EF24F0B7EF24F0CFEFD1
:1049700024F04150800A970FD8B0C1EF24F0C3EF64
:1049800024F0C5EF24F088EF24F0D8903B323A327F
:1049900039323832413EC5EF24F0E7EF24F01F0EE4
:1049A0004164D5EF24F0D7EF24F0DFEF24F088EF57
:1049B00024F0D890383639363A363B3641064150E5
:1049C000D8A4E5EF24F0E7EF24F0D9EF24F040502D
:1049D000D8B4EDEF24F0EFEF24F0F7EF24F03B1E16
:1049E0003A1E391E386C000E39223A223B2238C05A
:1049F00038F039C039F03AC03AF03BC03BF0120011
:104A0000000E0001B86F000EB36F000EB26F000E03
:104A1000146E000E136E000E166E000E156E82ECF4
:104A200023F014BE1DEF25F0145009E1650E135C50
:104A3000D8A01DEF25F01FEF25F02DEF25F0000E7B
:104A4000406E000E3F6E000E426E000E416E000E74
:104A5000446E640E436E12EC2BF0000E146E000ECA
:104A6000136E000E166E010E156E82EC23F014BE4E
:104A700043EF25F0145009E1650E135CD8A043EF15
:104A800025F045EF25F053EF25F0000E406E000EA7
:104A90003F6E000E426E010E416E000E446E000E1F
:104AA000436E12EC2BF0000E146E010E136E000E0E
:104AB000166E000E156E82EC23F014BE69EF25F021
:104AC000145009E1650E135CD8A069EF25F06BEF77
:104AD00025F079EF25F0000E406E010E3F6E000EBE
:104AE000426E000E416E000E446E640E436E12EC78
:104AF0002BF0000E146E010E136E000E166E010EDA
:104B0000156E82EC23F014BE8FEF25F0145009E1EE
:104B1000650E135CD8A08FEF25F091EF25F09FEF85
:104B200025F0000E406E010E3F6E000E426E010E2B
:104B3000416E000E446E000E436E12EC2BF012001C
:104B400002BEAEEF25F0025007E1080E015CD8B0BE
:104B5000ACEF25F0AEEF25F0C2EF25F001C003F079
:104B6000010E046E032AB7EF25F0D8900436032E09
:104B7000B5EF25F004508014056E0550016E026AF1
:104B800054EF26F002BED0EF25F0025007E1100EE0
:104B9000015CD8B0CEEF25F0D0EF25F0E6EF25F0A0
:104BA00001C003F0F80E0326010E046E032ADBEFAA
:104BB00025F0D8900436032ED9EF25F00450811447
:104BC000056E0550016E026A54EF26F002BEF4EF46
:104BD00025F0025007E1180E015CD8B0F2EF25F085
:104BE000F4EF25F00AEF26F001C003F0F00E0326E3
:104BF000010E046E032AFFEF25F0D8900436032E31
:104C0000FDEF25F004508214056E0550016E026A16
:104C100054EF26F002BE18EF26F0025007E1200EF6
:104C2000015CD8B016EF26F018EF26F02EEF26F034
:104C300001C003F0E80E0326010E046E032A23EFE1
:104C400026F0D8900436032E21EF26F0045083146A
:104C5000056E0550016E026A54EF26F002BE3CEF6D
:104C600026F0025007E1280E015CD8B03AEF26F09A
:104C70003CEF26F052EF26F001C003F0E00E0326D1
:104C8000010E046E032A47EF26F0D8900436032E57
:104C900045EF26F004508414056E0550016E026A3B
:104CA00054EF26F001680268120001C00BF002C048
:104CB0000CF005500610D8A460EF26F062EF26F045
:104CC00064EF26F00FEF27F00BC0D9FF0CC0DAFF1E
:104CD00003C0DFFF05500B24076E06500C20086E42
:104CE000FF0E0724D96EFF0E0820DA6E03C0DFFF27
:104CF000065007E1030E055CD8B081EF26F083EF84
:104D000026F085EF26F00FEF27F020EE01F00B5094
:104D1000D9260C50DA2203C0DFFF20EE02F00B5040
:104D2000D9260C50DA2203C0DFFF05500B24076E92
:104D300006500C20086EFE0E0724D96EFF0E0820C8
:104D4000DA6E03C0DFFF05500B24076E06500C20FF
:104D5000086EFD0E0724D96EFF0E0820DA6E03C020
:104D6000DFFF065007E1070E055CD8B0BAEF26F06A
:104D7000BCEF26F0BEEF26F00FEF27F020EE03F099
:104D80000B50D9260C50DA2203C0DFFF05500B244C
:104D9000076E06500C20086EFC0E0724D96EFF0E1D
:104DA0000820DA6E03C0DFFF065007E1090E055C3C
:104DB000D8B0DDEF26F0DFEF26F0E1EF26F00FEFC1
:104DC00027F00BC007F00CC008F0071E081E074AAA
:104DD000082A030E0714096E0A6A09500B260A50A6
:104DE0000C220950055E0A50065AFC0E0516FF0EED
:104DF000061606EF27F00BC0D9FF0CC0DAFF03C080
:104E0000DFFF0506D8A006060B4A0C2A055006103F
:104E1000D8A40DEF27F00FEF27F0FBEF26F01200DC
:104E2000096E0950D8B417EF27F019EF27F03BEFC0
:104E300027F004BE20EF27F01EEF27F03BEF27F00E
:104E400001C005F002C006F003C007F004C008F07E
:104E5000051E061E071E081E052A000E0622072232
:104E6000082205C00BF006C00CF007C00DF008C00A
:104E70000EF043EF27F001C00BF002C00CF003C0AE
:104E80000DF004C00EF00150021003100410D8A45D
:104E90004CEF27F04EEF27F058EF27F0000E016E91
:104EA000000E026E000E036E000E046EE9EF27F096
:104EB000960E0A6E62EF27F00A2AD8900E320D3253
:104EC0000C320B32000E0B14056E000E0C14066E25
:104ED000000E0D14076EFE0E0E14086E055006101F
:104EE00007100810D8A477EF27F079EF27F05CEFD0
:104EF00027F087EF27F00A2A010E0B26000E0C225E
:104F00000D220E22D8900E320D320C320B32000ED2
:104F10000B14056E000E0C14066E000E0D14076EB9
:104F2000FF0E0E14086E0550061007100810D8A4C6
:104F30009CEF27F09EEF27F07BEF27F0A6EF27F0FE
:104F40000A06D8900B360C360D360E360DBEABEF7A
:104F500027F0ADEF27F0B5EF27F0020E0A60B3EFB0
:104F600027F0B5EF27F0A0EF27F00AB0BAEF27F04F
:104F7000BCEF27F0BDEF27F00D9ED8900A320AC093
:104F800005F0066A076A086A05C008F0076A066A3B
:104F9000056A05500B1206500C1207500D120850EE
:104FA0000E120950D8B4D7EF27F0D9EF27F0E1EF70
:104FB00027F004BEE0EF27F0DEEF27F0E1EF27F067
:104FC0000E8E0BC001F00CC002F00DC003F00EC03D
:104FD00004F01200030EC16EC30EC216070E421873
:104FE0004310D8A4F6EF27F0F8EF27F0FCEF27F0F6
:104FF0001C0EC21215EF28F0080E42184310D8A458
:1050000004EF28F006EF28F009EF28F0C28A15EF28
:1050100028F00B0E42184310D8A411EF28F013EF1C
:1050200028F015EF28F02C0EC212C282C2B21BEF7C
:1050300028F01DEF28F016EF28F0C4CF44F0456AA1
:105040004450456E446AC3504426000E45220F0E5C
:10505000C16E44C001F045C002F0036A046A000E4C
:1050600010EC27F001C00FF002C010F003C011F0E7
:1050700004C012F00A0E136ED70E146E230E156EB6
:10508000410E166EC9EC2DF012BE4BEF28F049EF21
:1050900028F088EF28F0000E2C6E000E2D6E000E0A
:1050A0002E6EBF0E2F6E0A0E136ED70E146E230EC9
:1050B000156E410E166E44C001F045C002F0036A41
:1050C000046A000E10EC27F001C00FF002C010F0CF
:1050D00003C011F004C012F0C9EC2DF00FC028F08D
:1050E00010C029F011C02AF012C02BF096EC2FF05E
:1050F00028C038F029C039F02AC03AF02BC03BF064
:105100007DEC24F038C042F039C043F0C3EF28F002
:10511000000E2C6E000E2D6E000E2E6E3F0E2F6EAA
:105120000A0E136ED70E146E230E156E410E166EF8
:1051300044C001F045C002F0036A046A000E10EC9E
:1051400027F001C00FF002C010F003C011F004C03E
:1051500012F0C9EC2DF00FC028F010C029F011C0DA
:105160002AF012C02BF096EC2FF028C038F029C09E
:1051700039F02AC03AF02BC03BF07DEC24F038C067
:1051800042F039C043F0120002BED2EF28F00250C4
:1051900007E1080E015CD8B0D0EF28F0D2EF28F07C
:1051A000FCEF28F003500410D8B4D9EF28F0DBEF5F
:1051B00028F0EBEF28F001C005F0010E066E052A7D
:1051C000E4EF28F0D8900636052EE2EF28F00650DE
:1051D0009212EAEF29F001C005F0010E066E052AD1
:1051E000F4EF28F0D8900636052EF2EF28F006509E
:1051F000FF0A9216EAEF29F002BE0AEF29F00250E8
:1052000007E1100E015CD8B008EF29F00AEF29F091
:1052100038EF29F003500410D8B411EF29F013EF40
:1052200029F025EF29F001C005F0F80E0526010E42
:10523000066E052A1EEF29F0D8900636052E1CEFC3
:1052400029F006509312EAEF29F001C005F0F80E9C
:105250000526010E066E052A30EF29F0D890063695
:10526000052E2EEF29F00650FF0A9316EAEF29F0DB
:1052700002BE46EF29F0025007E1180E015CD8B0DB
:1052800044EF29F046EF29F074EF29F003500410A1
:10529000D8B44DEF29F04FEF29F061EF29F001C0AC
:1052A00005F0F00E0526010E066E052A5AEF29F0CC
:1052B000D8900636052E58EF29F006509412EAEFE2
:1052C00029F001C005F0F00E0526010E066E052A34
:1052D0006CEF29F0D8900636052E6AEF29F00650BB
:1052E000FF0A9416EAEF29F002BE82EF29F002507D
:1052F00007E1200E015CD8B080EF29F082EF29F0A1
:10530000B0EF29F003500410D8B489EF29F08BEFE7
:1053100029F09DEF29F001C005F0E80E0526010EE9
:10532000066E052A96EF29F0D8900636052E94EFE2
:1053300029F006509512EAEF29F001C005F0E80EB9
:105340000526010E066E052AA8EF29F0D89006362C
:10535000052EA6EF29F00650FF0A9516EAEF29F070
:1053600002BEBEEF29F0025007E1280E015CD8B062
:10537000BCEF29F0BEEF29F0EAEF29F0035004104A
:10538000D8B4C5EF29F0C7EF29F0D9EF29F001C053
:1053900005F0E00E0526010E066E052AD2EF29F073
:1053A000D8900636052ED0EF29F006509612EAEF77
:1053B00029F001C005F0E00E0526010E066E052A53
:1053C000E4EF29F0D8900636052EE2EF29F00650DA
:1053D000FF0A9616120002BEF9EF29F0025007E10B
:1053E000080E015CD8B0F7EF29F0F9EF29F023EFB0
:1053F0002AF003500410D8B400EF2AF002EF2AF08C
:1054000012EF2AF001C005F0010E066E052A0BEF1F
:105410002AF0D8900636052E09EF2AF006508012A1
:1054200011EF2BF001C005F0010E066E052A1BEFEF
:105430002AF0D8900636052E19EF2AF00650FF0AFA
:10544000801611EF2BF002BE31EF2AF0025007E177
:10545000100E015CD8B02FEF2AF031EF2AF05FEF89
:105460002AF0F80E0126FF0E022203500410D8B4D1
:105470003CEF2AF03EEF2AF04EEF2AF001C005F093
:10548000010E066E052A47EF2AF0D8900636052E43
:1054900045EF2AF00650811211EF2BF001C005F004
:1054A000010E066E052A57EF2AF0D8900636052E13
:1054B00055EF2AF00650FF0A811611EF2BF002BEBD
:1054C0006DEF2AF0025007E1180E015CD8B06BEFC7
:1054D0002AF06DEF2AF09BEF2AF0F00E0126FF0E66
:1054E000022203500410D8B478EF2AF07AEF2AF0A1
:1054F0008AEF2AF001C005F0010E066E052A83EF3F
:105500002AF0D8900636052E81EF2AF00650821236
:1055100011EF2BF001C005F0010E066E052A93EF86
:105520002AF0D8900636052E91EF2AF00650FF0A91
:10553000821611EF2BF002BEA9EF2AF0025007E10C
:10554000200E015CD8B0A7EF2AF0A9EF2AF0D7EF20
:105550002AF0E80E0126FF0E022203500410D8B4F0
:10556000B4EF2AF0B6EF2AF0C6EF2AF001C005F03A
:10557000010E066E052ABFEF2AF0D8900636052EDA
:10558000BDEF2AF00650831211EF2BF001C005F099
:10559000010E066E052ACFEF2AF0D8900636052EAA
:1055A000CDEF2AF00650FF0A831611EF2BF002BE52
:1055B000E5EF2AF0025007E1280E015CD8B0E3EFD6
:1055C0002AF0E5EF2AF011EF2BF0E00E0126FF0E96
:1055D000022203500410D8B4F0EF2AF0F2EF2AF0C0
:1055E00002EF2BF001C005F0010E066E052AFBEF5D
:1055F0002AF0D8900636052EF9EF2AF006508412CC
:1056000011EF2BF001C005F0010E066E052A0BEF1D
:105610002BF0D8900636052E09EF2BF00650FF0A26
:105620008416120054EF2CF0000E0F6E200E0E6E3A
:1056300048EC1EF043500E5C0F50800A456E4450FB
:10564000800A4558D8B027EF2BF029EF2BF04AEF0E
:105650002BF044BE37EF2BF0445007E1650E435C5E
:10566000D8B035EF2BF037EF2BF03DEF2BF043C0E8
:1056700047F044C048F041EF2BF0000E486E640E36
:10568000476E000E396E210E386E47504FEC22F0F7
:105690006AEF2CF0000E396E210E386E000E0F6E80
:1056A000200E0E6E48EC1EF00E284FEC22F06AEF32
:1056B0002CF0000E0F6E210E0E6E48EC1EF00E50F8
:1056C000435C4450800A456E0F50800A4558D8B05C
:1056D0006CEF2BF06EEF2BF08FEF2BF044BE7CEFD6
:1056E0002BF0445007E1640E435CD8B07AEF2BF006
:1056F0007CEF2BF082EF2BF043C049F044C04AF01E
:1057000086EF2BF0000E4A6E630E496E000E396E66
:10571000200E386E49504FEC22F06AEF2CF0000E4C
:10572000396E200E386E000E0F6E210E0E6E48EC94
:105730001EF00E044FEC22F06AEF2CF041C045F051
:1057400042C046F04650000AD8B4A9EF2BF06AEFE9
:105750002CF04550000AD8B414EF2BF0010AD8B44D
:1057600059EF2BF06AEF2CF0000E0F6E220E0E6E2A
:1057700048EC1EF043500E5C0F50800A456E4450BA
:10578000800A4558D8B0C7EF2BF0C9EF2BF0EAEFED
:105790002BF044BED7EF2BF0445007E1650E435C7D
:1057A000D8B0D5EF2BF0D7EF2BF0DDEF2BF043C0C7
:1057B0004BF044C04CF0E1EF2BF0000E4C6E640E49
:1057C0004B6E000E396E230E386E4B504FEC22F0AC
:1057D0006AEF2CF0000E396E230E386E000E0F6E3D
:1057E000220E0E6E48EC1EF00E284FEC22F06AEFEF
:1057F0002CF0000E0F6E230E0E6E48EC1EF00E50B5
:10580000435C4450800A456E0F50800A4558D8B01A
:105810000CEF2CF00EEF2CF02FEF2CF044BE1CEF11
:105820002CF0445007E1640E435CD8B01AEF2CF022
:105830001CEF2CF022EF2CF043C04DF044C04EF092
:1058400026EF2CF0000E4E6E630E4D6E000E396E7C
:10585000220E386E4D504FEC22F06AEF2CF0000E05
:10586000396E220E386E000E0F6E230E0E6E48EC4F
:105870001EF00E044FEC22F06AEF2CF041C045F010
:1058800042C046F04650000AD8B449EF2CF06AEF07
:105890002CF04550000AD8B4B4EF2BF0010AD8B46C
:1058A000F9EF2BF06AEF2CF03FC045F040C046F016
:1058B0004650000AD8B45FEF2CF06AEF2CF0455048
:1058C000000AD8B49EEF2BF0010AD8B43EEF2CF0BA
:1058D0006AEF2CF01200000E0001DF6F050EDE6F84
:1058E000E9EC1FF00001DD6FDD51E06FE16BB651B7
:1058F000E01909E1B751E119D8B481EF2CF083EF39
:105900002CF0C8EF2CF0050EE019E111D8A48BEFB4
:105910002CF08DEF2CF091EF2CF0000EDF6F030ECA
:10592000DE6F040EE019E111D8A499EF2CF09BEF83
:105930002CF09FEF2CF0000EDF6F020EDE6F030ED7
:10594000E019E111D8A4A7EF2CF0A9EF2CF0ADEFEE
:105950002CF0000EDF6F040EDE6F020EE019E11175
:10596000D8A4B5EF2CF0B7EF2CF0BBEF2CF0000E65
:10597000DF6F000EDE6FE005E111D8A4C2EF2CF05E
:10598000C4EF2CF0C8EF2CF0000EDF6F010EDE6FBD
:1059900040EC1DF00001E26F610EE219D8B4D3EFC4
:1059A0002CF0D5EF2CF0DEEF2CF0410EE219D8A44C
:1059B000DCEF2CF0DEEF2CF0E4EF2CF0000EDF6FCC
:1059C000020EDE6FC0EF2DF0640EE219D8B4EBEFDB
:1059D0002CF0EDEF2CF0F6EF2CF0440EE219D8A4E9
:1059E000F4EF2CF0F6EF2CF0FCEF2CF0000EDF6F54
:1059F000030EDE6FC0EF2DF0730EE219D8B403EF83
:105A00002DF005EF2DF00EEF2DF0530EE219D8A476
:105A10000CEF2DF00EEF2DF014EF2DF0000EDF6FD8
:105A2000010EDE6FC0EF2DF0770EE219D8B41BEF38
:105A30002DF01DEF2DF026EF2DF0570EE219D8A412
:105A400024EF2DF026EF2DF02CEF2DF0000EDF6F60
:105A5000000EDE6FC0EF2DF0660EE219D8B433EF02
:105A60002DF035EF2DF03EEF2DF0460EE219D8A4C3
:105A70003CEF2DF03EEF2DF044EF2DF0000EDF6FE8
:105A8000040EDE6FC0EF2DF02F0EE219D8A44BEFFD
:105A90002DF04DEF2DF064EF2DF0BD0E016E000ED8
:105AA000026E000E046E000E036E000E066E200ED7
:105AB000056E55EC26F0E2C0BDF0000E0001B56F9A
:105AC000000EB46FC0EF2DF03B0EE219D8A46BEFBF
:105AD0002DF06DEF2DF08CEF2DF0BE0EB425D96EAC
:105AE000000EB521DA6EE2C0DFFFBBEC34F0000E31
:105AF0000001B56F000EB46FBD0E016E000E026E98
:105B0000000E046E000E036E000E066E200E056E73
:105B100055EC26F0C0EF2DF0200EB419B511D8A425
:105B200094EF2DF096EF2DF0A6EF2DF0BD0E016E47
:105B3000000E026E000E046E000E036E000E066E66
:105B4000200E056E55EC26F05DEF2DF0E251D8B435
:105B5000ACEF2DF0AEEF2DF0C0EF2DF0B44BB52B28
:105B6000BD0EB425D96E000EB521DA6EE2C0DFFF9E
:105B7000BD0E026E000E036E98EC20F0C0EF2DF00B
:105B8000E0C0B6F0E1C0B7F0DEC05EF0DFC05FF0AD
:105B900012001250800B1F6E12501224266E11AE8E
:105BA000D4EF2DF0D6EF2DF0D7EF2DF02680265034
:105BB000D8B4DDEF2DF0DFEF2DF0F4EF2DF0262837
:105BC000D8A4E5EF2DF0E7EF2DF0EFEF2DF0000E6C
:105BD0000F6E000E106E000E116E000E126E118E02
:105BE000000E126EFCEF2DF0000E0F6E000E106E08
:105BF000000E116E000E126E1650800B1F1A1650FA
:105C00001624276E15AE07EF2EF009EF2EF00AEFDF
:105C10002EF027802750D8B410EF2EF012EF2EF080
:105C200027EF2EF02728D8A418EF2EF01AEF2EF029
:105C300022EF2EF0000E136E000E146E000E156E85
:105C4000000E166E158E000E166E2FEF2EF0000E43
:105C5000136E000E146E000E156E000E166E1350AD
:105C6000141015101610D8A438EF2EF03AEF2EF0BD
:105C700052EF2EF0000E0F6E000E106E000E116E21
:105C8000000E126E800E11127F0E12121F50121291
:105C90000FC00FF010C010F011C011F012C012F0C0
:105CA00095EF2FF02650D8A458EF2EF05AEF2EF093
:105CB00064EF2EF0000E0F6E000E106E000E116ECF
:105CC000000E126E95EF2FF0275026C017F0186ABD
:105CD000175E000E185A7F0E1724206E000E182033
:105CE000216E0FC01BF010C01CF011C01DF012C0BF
:105CF0001EF0000E0F6E000E106E000E116E000EE4
:105D0000126E000E226E000E236E000E246E000E28
:105D1000256E000E276EC5EF2EF02750D8B493EFF6
:105D20002EF095EF2EF0ACEF2EF0D8901B361C36EF
:105D30001D361E36D8900F3610361136123625AE67
:105D4000A4EF2EF0A6EF2EF0A7EF2EF00F80D89044
:105D5000223623362436253613501B5C14501C582B
:105D600015501D5816501E58D8A0B9EF2EF0BBEF95
:105D70002EF0C4EF2EF0258C13501B5E14501C5ACD
:105D800015501D5A16501E5A272A190E2764CBEF9C
:105D90002EF0CDEF2EF08DEF2EF01B501C101D10AD
:105DA0001E10D8B4D6EF2EF0D8EF2EF0F0EF2EF074
:105DB0002280F0EF2EF0D8900F36103611361236C2
:105DC00025AEE5EF2EF0E7EF2EF0E8EF2EF00F8096
:105DD000D89022362336243625362006D8A0210630
:105DE00011AEF5EF2EF0F7EF2EF0DBEF2EF0000EF8
:105DF000276E25AEFEEF2EF000EF2FF024EF2FF0F0
:105E0000FF0E2214176EFF0E2314186EFF0E2414BB
:105E1000196E7F0E25141A6E1750181019101A10CB
:105E2000D8B415EF2FF017EF2FF01BEF2FF0010E66
:105E3000276E24EF2FF00FA020EF2FF022EF2FF08E
:105E400024EF2FF017EF2FF02750D8B42AEF2FF0C0
:105E50002CEF2FF050EF2FF0010E0F26000E102226
:105E60001122122212A037EF2FF039EF2FF050EF4E
:105E70002FF00FC017F010C018F011C019F012C0A9
:105E80001AF01A341A3219321832173217C00FF0BA
:105E900018C010F019C011F01AC012F0204A212ABF
:105EA00021BE5BEF2FF0215008E12028D8A05BEF46
:105EB0002FF05DEF2FF068EF2FF0000E216E2068BD
:105EC000000E0F6E000E106E000E116E000E126EA0
:105ED00021BE75EF2FF0215006E12004D8B073EFFA
:105EE0002FF075EF2FF083EF2FF0000E216E000ED4
:105EF000206E000E0F6E000E106E000E116E000E62
:105F0000126E000E1F6E20C026F026A08AEF2FF022
:105F10008CEF2FF08FEF2FF0118E90EF2FF0119E5E
:105F2000D8902630126E46EF2EF012002B50800BC8
:105F3000346E2B502B24366E2AAEA1EF2FF0A3EF38
:105F40002FF0A4EF2FF036803650D8B4AAEF2FF000
:105F5000ACEF2FF0C1EF2FF03628D8A4B2EF2FF01E
:105F6000B4EF2FF0BCEF2FF0000E286E000E296E5C
:105F7000000E2A6E000E2B6E2A8E000E2B6EC9EFBD
:105F80002FF0000E286E000E296E000E2A6E000EF5
:105F90002B6E2F50800B356E34503518D8B4D3EF9C
:105FA0002FF0D5EF2FF0D6EF2FF0348C2F502F2479
:105FB000356E2EAEDEEF2FF0E0EF2FF0E1EF2FF099
:105FC00035803550D8B4E7EF2FF0E9EF2FF0FEEF32
:105FD0002FF03528D8A4EFEF2FF0F1EF2FF0F9EFE5
:105FE0002FF0000E2C6E000E2D6E000E2E6E000E89
:105FF0002F6E2E8E000E2F6E06EF30F0000E2C6EE0
:10600000000E2D6E000E2E6E000E2F6E3650355C7B
:10601000D8B00DEF30F00FEF30F036EF30F034AC99
:1060200014EF30F016EF30F018EF30F0800E341A25
:1060300036C037F035C036F037C035F028C037F0FD
:106040002CC028F037C02CF029C037F02DC029F023
:1060500037C02DF02AC037F02EC02AF037C02EF0FE
:106060002BC037F02FC02BF037C02FF0000E376E4B
:10607000365035C030F0316A305E000E315A31BED4
:106080004BEF30F0315009E11A0E305CD8A04BEFE5
:1060900030F04DEF30F084EF30F0285029102A1006
:1060A0002B10D8A456EF30F059EF30F0010E5AEF14
:1060B00030F0000E376E000E286E000E296E000EB6
:1060C0002A6E000E2B6E35C036F08DEF30F037A003
:1060D0006CEF30F06EEF30F074EF30F0D890373076
:1060E0000109376E76EF30F0D890373228A07BEF79
:1060F00030F07DEF30F07EEF30F0378E2B342B32E6
:106100002A3229322832362A3550365CD8A08BEF15
:1061100030F08DEF30F067EF30F034BC92EF30F0BC
:1061200094EF30F0D4EF30F03650D8A49AEF30F03E
:106130009CEF30F0A6EF30F0000E286E000E296EB6
:10614000000E2A6E000E2B6EF5EF31F02C50282633
:106150002D5029222E502A222F502B222BA0B3EF74
:1061600030F0B5EF30F061EF31F037A0BAEF30F03A
:10617000BCEF30F0C2EF30F0D89037300109376E05
:10618000C4EF30F0D890373228A0C9EF30F0CBEF11
:1061900030F0CCEF30F0378E2B342B322A322932CC
:1061A0002832362A61EF31F02C50285C2D502958C6
:1061B0002E502A582B50800A306E2F50800A3058AB
:1061C000D8B0E5EF30F0E7EF30F012EF31F02850C3
:1061D0002C5C306E29502D58316E2A502E58326E5C
:1061E0002B502F58336EFF0E3024286EFF0E3120B7
:1061F000296EFF0E32202A6EFF0E33202B6E800E8A
:10620000341A376C3750D8A408EF31F00AEF31F068
:106210001AEF31F0010E2826000E29222A222B2205
:106220001AEF31F02C50285E2D50295A2E502A5A40
:106230002F502B5A285029102A102B10D8A423EFA6
:1062400031F025EF31F05AEF31F03750D8A42BEF71
:1062500031F02DEF31F05AEF31F0000E286E000EC4
:10626000296E000E2A6E000E2B6EF5EF31F0D890DD
:10627000283629362A362B3637AE41EF31F043EF38
:1062800031F044EF31F0288037A049EF31F04BEF87
:1062900031F04FEF31F0D880373651EF31F0D890F0
:1062A00037363650D8B457EF31F059EF31F05AEF56
:1062B00031F036062AAE5FEF31F061EF31F037EFA3
:1062C00031F0000E356E37AE68EF31F06AEF31F025
:1062D00082EF31F037C030F07F0E3016D8B473EF54
:1062E00031F075EF31F079EF31F0010E356E82EF5C
:1062F00031F028A07EEF31F080EF31F082EF31F005
:1063000075EF31F03550D8B488EF31F08AEF31F0C5
:10631000B5EF31F0010E2826000E29222A222B2269
:106320002BA095EF31F097EF31F0B5EF31F028C0A9
:1063300030F029C031F02AC032F02BC033F03334B2
:10634000333232323132303230C028F031C029F0AD
:1063500032C02AF033C02BF03628D8B4B2EF31F077
:10636000B4EF31F0B5EF31F0362A3628D8B4BBEFB0
:1063700031F0BDEF31F0C5EF31F03650D8A4C3EFA6
:1063800031F0C5EF31F0D7EF31F0000E286E000E7E
:10639000296E000E2A6E000E2B6E3650D8A4D3EF55
:1063A00031F0D5EF31F0D7EF31F0000E346E36A07A
:1063B000DCEF31F0DEEF31F0E1EF31F02A8EE2EF89
:1063C00031F02A9ED89036302B6E34AEEAEF31F0A1
:1063D000ECEF31F0EDEF31F02B8E28C028F029C022
:1063E00029F02AC02AF02BC02BF012006BEC2CF005
:1063F0005E500001E56F3FEF34F0030EE519D8A4BD
:1064000004EF32F006EF32F009EF32F0010E72ECD9
:106410001CF0020E0001E519D8A411EF32F013EFC1
:1064200032F06EEF34F0030E72EC1CF06EEF34F0CD
:10643000040EE519D8A41FEF32F021EF32F02BEF54
:1064400032F0AAEC1CF0010E13243F6E000E142053
:10645000406E8CEC1CF0030E0001E519D8A433EF5C
:1064600032F035EF32F038EF32F0020E72EC1CF001
:10647000020E0001E519D8A440EF32F042EF32F0ED
:106480006EEF34F0000E72EC1CF06EEF34F0030E81
:10649000E519D8A44EEF32F050EF32F053EF32F05E
:1064A000030E72EC1CF0020E0001E519D8A45BEF9C
:1064B00032F05DEF32F060EF32F0010E72EC1CF062
:1064C000040E0001E519D8A468EF32F06AEF32F04B
:1064D0006EEF34F0040E72EC1CF06EEF34F0030E2D
:1064E000E519D8A476EF32F078EF32F07BEF32F096
:1064F000000E72EC1CF0020E0001E519D8A483EF27
:1065000032F085EF32F088EF32F0020E72EC1CF0C0
:10651000040E0001E519D8A490EF32F092EF32F0AA
:106520006EEF34F0060E72EC1CF06EEF34F0030EDA
:10653000E519D8B49EEF32F0A0EF32F0A9EF32F0B7
:10654000020EE519D8A4A7EF32F0A9EF32F0ACEFB4
:1065500032F0050E72EC1CF00001E551D8A4B3EF47
:1065600032F0B5EF32F0CFEF32F0000E406E000E99
:106570003F6E000E426E000E416E000E146E000E55
:10658000136E000E166E000E156E82EC23F0010ED7
:106590001324436E000E1420446E12EC2BF0000105
:1065A000E505D8A4D6EF32F0D8EF32F0F2EF32F0B2
:1065B000000E406E000E3F6E000E426E000E416EE9
:1065C000000E146E000E136E000E166E000E156E89
:1065D00082EC23F0FF0E1324436EFF0E1420446E52
:1065E00012EC2BF0040E0001E519D8A4FAEF32F0FA
:1065F000FCEF32F06EEF34F0020E72EC1CF06EEF36
:1066000034F0030EE519D8B408EF33F00AEF33F095
:1066100013EF33F0020EE519D8A411EF33F013EFA6
:1066200033F016EF33F0040E72EC1CF00001E5516C
:10663000D8A41DEF33F01FEF33F039EF33F0000E25
:10664000406E000E3F6E000E426E010E416E000E57
:10665000146E000E136E000E166E010E156E82EC97
:1066600023F0010E1324436E000E1420446E12EC2E
:106670002BF00001E505D8A440EF33F042EF33F0F2
:106680005CEF33F0000E406E000E3F6E000E426E67
:10669000010E416E000E146E000E136E000E166E8B
:1066A000010E156E82EC23F0FF0E1324436EFF0ED5
:1066B0001420446E12EC2BF0040E0001E519D8A44E
:1066C00064EF33F066EF33F06EEF34F0020E72ECED
:1066D0001CF06EEF34F0030EE519D8B472EF33F00E
:1066E00074EF33F07DEF33F0020EE519D8A47BEFA1
:1066F00033F07DEF33F080EF33F0070E72EC1CF0D7
:106700000001E551D8A487EF33F089EF33F0A3EF10
:1067100033F0000E406E010E3F6E000E426E000E12
:10672000416E000E146E010E136E000E166E000EFA
:10673000156E82EC23F0010E1324436E000E14201C
:10674000446E12EC2BF00001E505D8A4AAEF33F05B
:10675000ACEF33F0C6EF33F0000E406E010E3F6E2B
:10676000000E426E000E416E000E146E010E136E8E
:10677000000E166E000E156E82EC23F0FF0E132431
:10678000436EFF0E1420446E12EC2BF0040E000139
:10679000E519D8A4CEEF33F0D0EF33F06EEF34F03C
:1067A000030E72EC1CF06EEF34F0030EE519D8B452
:1067B000DCEF33F0DEEF33F0E7EF33F0020EE519F4
:1067C000D8A4E5EF33F0E7EF33F0EAEF33F0060E4D
:1067D00072EC1CF00001E551D8A4F1EF33F0F3EFB7
:1067E00033F00DEF34F0000E406E010E3F6E000EE0
:1067F000426E010E416E000E146E010E136E000EFD
:10680000166E010E156E82EC23F0010E1324436EFA
:10681000000E1420446E12EC2BF00001E505D8A404
:1068200014EF34F016EF34F030EF34F0000E406E19
:10683000010E3F6E000E426E010E416E000E146E90
:10684000010E136E000E166E010E156E82EC23F013
:10685000FF0E1324436EFF0E1420446E12EC2BF037
:10686000040E0001E519D8A438EF34F03AEF34F003
:106870006EEF34F0030E72EC1CF06EEF34F06FEC40
:106880001CF00001E36FE46BE451000AD8B44BEF55
:1068900034F06EEF34F0E351000AD8B4FDEF31F07C
:1068A000010AD8B418EF32F0030AD8B447EF32F037
:1068B000010AD8B46FEF32F0070AD8B497EF32F07C
:1068C000010AD8B401EF33F0030AD8B46BEF33F008
:1068D000010AD8B4D5EF33F06EEF34F0050E0001A5
:1068E000E519D8B476EF34F078EF34F07EEF34F079
:1068F000000E046E000E036E7FEC1CF07AEC1CF0B0
:1069000002BE8EEF34F0D00E015C070E0258D8B0F4
:106910008CEF34F08EEF34F098EF34F07AEC1CF01A
:10692000010E0124036E000E0220046E7FEC1CF0A9
:106930007AEC1CF002BEA6EF34F0D00E015C070E1C
:106940000258D8A0A6EF34F0A8EF34F0ABEF34F043
:10695000000E72EC1CF06FEC1CF00001E36FE351D1
:10696000536E546AAAEC1CF013C055F014C056F0D4
:1069700096EC38F01200000E536E000E526E430E6D
:106980000001BE19D8B4C7EF34F0C9EF34F0E4EF1A
:1069900034F0630EBE19D8B4D0EF34F0D2EF34F037
:1069A000E4EF34F0480EBF19D8B4D9EF34F0DBEF80
:1069B00034F0E4EF34F0680EBF19D8A4E2EF34F0FD
:1069C000E4EF34F077EF36F04D0EC019D8B4EBEFAA
:1069D00034F0EDEF34F0F6EF34F06D0EC019D8A4BA
:1069E000F4EF34F0F6EF34F0FAEF37F0000E5D6EAE
:1069F000000E5C6E310EC119D8A401EF35F003EF23
:106A000035F07DEF36F04C0EC319D8B40AEF35F0EF
:106A10000CEF35F015EF35F06C0EC319D8A413EF59
:106A200035F015EF35F0BDEF35F0560EC419D8B47A
:106A30001CEF35F01EEF35F027EF35F0760EC41958
:106A4000D8A425EF35F027EF35F0BDEF35F0000E77
:106A5000556E090E546E7EEF35F05C505D10D8B463
:106A600034EF35F036EF35F044EF35F05CC001F02F
:106A70005DC002F0000E046E0A0E036EEEEC1CF018
:106A800001C05CF002C05DF0BD0E5424D96E000E52
:106A90005520DA6E2F0EDF6450EF35F052EF35F0EF
:106AA00074EF35F0BD0E5424D96E000E5520DA6E09
:106AB0003A0EDF605EEF35F060EF35F074EF35F0E1
:106AC000BD0E5424D96E000E5520DA6EDF504F6E85
:106AD000D00E4F24506E516AFF0E512250505C264A
:106AE00051505D227CEF35F0A30E026E7E0E036ED8
:106AF00098EC20F095EF38F0544A552A5450000194
:106B0000B45D5550B559D8B088EF35F08AEF35F0FF
:106B10002DEF35F05C505D10D8B491EF35F093EF68
:106B200035F0B5EF35F05DBE9FEF35F05D5009E112
:106B3000650E5C5CD8A09FEF35F0A1EF35F0A5EFB6
:106B400035F0000E5D6E640E5C6E000E406E000E41
:106B50003F6E000E426E010E416E5CC043F05DC0A0
:106B600044F012EC2BF086EF38F0A30E026E7E0E8E
:106B7000036E98EC20F086EF38F0480EC319D8B4B5
:106B8000C4EF35F0C6EF35F0CFEF35F0680EC3191E
:106B9000D8A4CDEF35F0CFEF35F077EF36F0560EC5
:106BA000C419D8B4D6EF35F0D8EF35F0E1EF35F0B1
:106BB000760EC419D8A4DFEF35F0E1EF35F077EFAA
:106BC00036F0000E576E090E566E38EF36F05C50F8
:106BD0005D10D8B4EEEF35F0F0EF35F0FEEF35F0A4
:106BE0005CC001F05DC002F0000E046E0A0E036E80
:106BF000EEEC1CF001C05CF002C05DF0BD0E56244E
:106C0000D96E000E5720DA6E2F0EDF640AEF36F0D1
:106C10000CEF36F02EEF36F0BD0E5624D96E000E76
:106C20005720DA6E3A0EDF6018EF36F01AEF36F0C2
:106C30002EEF36F0BD0E5624D96E000E5720DA6EB8
:106C4000DF504F6ED00E4F24506E516AFF0E51220E
:106C500050505C2651505D2236EF36F0A30E026E86
:106C60007E0E036E98EC20F095EF38F0564A572AC6
:106C700056500001B45D5750B559D8B042EF36F0C8
:106C800044EF36F0E7EF35F05C505D10D8B44BEFD1
:106C900036F04DEF36F06FEF36F05DBE59EF36F05F
:106CA0005D5009E1650E5C5CD8A059EF36F05BEFF2
:106CB00036F05FEF36F0000E5D6E640E5C6E000E17
:106CC000406E000E3F6E000E426E000E416E5CC0C4
:106CD00043F05DC044F012EC2BF086EF38F0A30EC9
:106CE000026E7E0E036E98EC20F086EF38F0000EF8
:106CF000536E010E526E86EF38F0320EC119D8A4D1
:106D000084EF36F086EF36F077EF36F04C0EC3198D
:106D1000D8B48DEF36F08FEF36F098EF36F06C0E7A
:106D2000C319D8A496EF36F098EF36F040EF37F05D
:106D3000560EC419D8B49FEF36F0A1EF36F0AAEF83
:106D400036F0760EC419D8A4A8EF36F0AAEF36F0C4
:106D500040EF37F0000E596E090E586E01EF37F014
:106D60005C505D10D8B4B7EF36F0B9EF36F0C7EF2E
:106D700036F05CC001F05DC002F0000E046E0A0E39
:106D8000036EEEEC1CF001C05CF002C05DF0BD0EC5
:106D90005824D96E000E5920DA6E2F0EDF64D3EF1F
:106DA00036F0D5EF36F0F7EF36F0BD0E5824D96E39
:106DB000000E5920DA6E3A0EDF60E1EF36F0E3EFB5
:106DC00036F0F7EF36F0BD0E5824D96E000E59207C
:106DD000DA6EDF504F6ED00E4F24506E516AFF0EA8
:106DE000512250505C2651505D22FFEF36F0A30E29
:106DF000026E7E0E036E98EC20F095EF38F0584A44
:106E0000592A58500001B45D5950B559D8B00BEF0C
:106E100037F00DEF37F0B0EF36F05C505D10D8B4BE
:106E200014EF37F016EF37F038EF37F05DBE22EF92
:106E300037F05D5009E1650E5C5CD8A022EF37F0B9
:106E400024EF37F028EF37F0000E5D6E640E5C6EB5
:106E5000000E406E010E3F6E000E426E010E416E3E
:106E60005CC043F05DC044F012EC2BF086EF38F0CC
:106E7000A30E026E7E0E036E98EC20F086EF38F0C3
:106E8000480EC319D8B447EF37F049EF37F052EF47
:106E900037F0680EC319D8A450EF37F052EF37F02F
:106EA00077EF36F0560EC419D8B459EF37F05BEFD0
:106EB00037F064EF37F0760EC419D8A462EF37F0DC
:106EC00064EF37F077EF36F0000E5B6E090E5A6E06
:106ED000BBEF37F05C505D10D8B471EF37F073EF53
:106EE00037F081EF37F05CC001F05DC002F0000EBA
:106EF000046E0A0E036EEEEC1CF001C05CF002C0E2
:106F00005DF0BD0E5A24D96E000E5B20DA6E2F0E96
:106F1000DF648DEF37F08FEF37F0B1EF37F0BD0E54
:106F20005A24D96E000E5B20DA6E3A0EDF609BEFBA
:106F300037F09DEF37F0B1EF37F0BD0E5A24D96E20
:106F4000000E5B20DA6EDF504F6ED00E4F24506E75
:106F5000516AFF0E512250505C2651505D22B9EF0C
:106F600037F0A30E026E7E0E036E98EC20F095EFC4
:106F700038F05A4A5B2A5A500001B45D5B50B5594B
:106F8000D8B0C5EF37F0C7EF37F06AEF37F05C5095
:106F90005D10D8B4CEEF37F0D0EF37F0F2EF37F026
:106FA0005DBEDCEF37F05D5009E1650E5C5CD8A09A
:106FB000DCEF37F0DEEF37F0E2EF37F0000E5D6E1A
:106FC000640E5C6E000E406E010E3F6E000E426E4F
:106FD000000E416E5CC043F05DC044F012EC2BF03B
:106FE00086EF38F0A30E026E7E0E036E98EC20F052
:106FF00086EF38F04C0EC019D8B401EF38F003EF2B
:1070000038F00CEF38F06C0EC019D8A40AEF38F045
:107010000CEF38F077EF36F0470EC119D8B413EF04
:1070200038F015EF38F01EEF38F0670EC119D8A40C
:107030001CEF38F01EEF38F077EF36F0300EC31942
:10704000D8B425EF38F027EF38F04BEF38F0500E7A
:10705000C319D8B42EEF38F030EF38F039EF38F0EC
:10706000700EC419D8A437EF38F039EF38F053EF69
:1070700038F0540EC419D8B440EF38F042EF38F06D
:107080004BEF38F0740EC419D8A449EF38F04BEF29
:1070900038F053EF38F0000E406E000E3F6E8CEC6F
:1070A0001CF086EF38F0310EC319D8B45AEF38F01F
:1070B0005CEF38F080EF38F0450EC319D8B463EFB9
:1070C00038F065EF38F06EEF38F0650EC319D8A4CC
:1070D0006CEF38F06EEF38F086EF38F04E0EC419D2
:1070E000D8B475EF38F077EF38F080EF38F06E0EE7
:1070F000C419D8A47EEF38F080EF38F086EF38F06E
:10710000000E406E010E3F6E8CEC1CF052045310CA
:10711000D8A48DEF38F08FEF38F095EF38F0030EEC
:10712000026E7E0E036E98EC20F012000001B0514A
:10713000531809E1B1515418D8B4A1EF38F0A3EFB6
:1071400038F0AAEF38F0010E6BEC1EF053C0B0F02F
:1071500054C0B1F053505410D8A4B1EF38F0B3EF8D
:1071600038F083EF3AF0800E6BEC1EF00A0E9FECC5
:107170001CF053C057F054C058F0D89057365836CA
:10718000D89057365836800E5724596E000E582026
:107190005A6ED8905534D96E5634DA6E5950D92675
:1071A0005A50DA22DECF04F0DDCF05F031EC1FF0CB
:1071B000000E476E000E466E06EC1FF046C04AF009
:1071C00047C04BF0D7EC20F053C057F054C058F0F4
:1071D000D89057365836D89057365836800E5724A0
:1071E000596E000E58205A6ED8905534D96E5634C8
:1071F000DA6E5950D9265A50DA22DECF02F0DDCFAE
:1072000003F098EC20F0000E476E000E466E06EC80
:107210001FF046C051F047C052F016EC21F00A0EA4
:107220009FEC1CF0000E4B6E000E4A6E000E4D6E71
:10723000000E4C6EB4EC22F04A504B10D8B423EF41
:1072400039F025EF39F04EEF39F0D8905534D96E3A
:107250005634DA6EA80ED926000EDA22DECF04F0FC
:10726000DDCF05F031EC1FF0D8905534D96E56348F
:10727000DA6EA00ED926000EDA22DECF02F0DDCFC4
:1072800003F098EC20F00A0E9FEC1CF0000E086E44
:10729000010E076E1BEC23F090EF39F0000E4B6EE1
:1072A000000E4A6E000E4D6E010E4C6EB4EC22F0D4
:1072B0004A504B10D8B45FEF39F061EF39F084EFEA
:1072C00039F0D8905534D96E5634DA6EAC0ED926D2
:1072D000000EDA22DECF04F0DDCF05F031EC1FF036
:1072E000D8905534D96E5634DA6EA40ED926000ED5
:1072F000DA22DECF02F0DDCF03F098EC20F00A0EA8
:107300009FEC1CF046EF39F01F0E046E7F0E056EE9
:1073100031EC1FF0000E086E010E076EB8EC1FF086
:10732000C00E6BEC1EF00A0E9FEC1CF053C057F021
:1073300054C058F0D89057365836D89057365836EB
:10734000600E5724596E000E58205A6ED89055344E
:10735000D96E5634DA6E5950D9265A50DA22DECF19
:1073600004F0DDCF05F031EC1FF0000E476E010E8A
:10737000466E06EC1FF046C04AF047C04BF0D7EC13
:1073800020F053C057F054C058F0D89057365836B4
:10739000D89057365836600E5724596E000E582034
:1073A0005A6ED8905534D96E5634DA6E5950D92663
:1073B0005A50DA22DECF02F0DDCF03F098EC20F055
:1073C000000E476E010E466E06EC1FF046C051F0EF
:1073D00047C052F016EC21F00A0E9FEC1CF0000E94
:1073E0004B6E010E4A6E000E4D6E000E4C6EB4ECEC
:1073F00022F04A504B10D8B400EF3AF002EF3AF0C6
:107400003BEF3AF0D8905534D96E5634DA6EA80E68
:10741000D926000EDA22DECF04F0DDCF05F031EC04
:107420001FF0D8905534D96E5634DA6EA00ED92696
:10743000000EDA22DECF02F0DDCF03F098EC20F070
:107440000A0E9FEC1CF0000E086E020E076E1BEC7D
:1074500023F0000E4B6E010E4A6E000E4D6E000EB4
:107460004C6EB4EC22F04AC051F04BC052F016EC16
:1074700021F083EF3AF0000E4B6E010E4A6E000EC3
:107480004D6E010E4C6EB4EC22F04A504B10D8B445
:107490004CEF3AF04EEF3AF077EF3AF0D89055349F
:1074A000D96E5634DA6EAC0ED926000EDA22DECF53
:1074B00004F0DDCF05F031EC1FF0D8905534D96ED3
:1074C0005634DA6EA40ED926000EDA22DECF02F090
:1074D000DDCF03F098EC20F00A0E9FEC1CF0000EBC
:1074E000086E020E076E1BEC23F083EF3AF01F0EBE
:1074F000046E7F0E056E31EC1FF0000E086E020E5A
:10750000076EB8EC1FF053045410D8A48AEF3AF079
:107510008CEF3AF014EF3BF0800E6BEC1EF053C092
:1075200057F054C058F0D89057365836D890573640
:107530005836800E5724596E000E58205A6ED89037
:107540005534D96E5634DA6E5950D9265A50DA224B
:10755000DECF04F0DDCF05F031EC1FF0C00E6BEC98
:107560001EF053C057F054C058F0D89057365836D4
:10757000D89057365836600E5724596E000E582052
:107580005A6ED8905534D96E5634DA6E5950D92681
:107590005A50DA22DECF04F0DDCF05F031EC1FF0D7
:1075A0000A0E9FEC1CF053C057F054C058F0D8900E
:1075B00057365836D89057365836800E5724596E5D
:1075C000000E58205A6ED8905534D96E5634DA6E63
:1075D0005950D9265A50DA22DECF02F0DDCF03F01F
:1075E00098EC20F00A0E9FEC1CF053C057F054C0EA
:1075F00058F0D89057365836D89057365836600ECF
:107600005724596E000E58205A6ED8905534D96EB2
:107610005634DA6E5950D9265A50DA22DECF02F0AB
:10762000DDCF03F098EC20F0020E53185410D8A4CC
:107630001CEF3BF01EEF3BF0A6EF3BF0800E6BEC37
:107640001EF053C057F054C058F0D89057365836F3
:10765000D89057365836800E5724596E000E582051
:107660005A6ED8905534D96E5634DA6E5950D926A0
:107670005A50DA22DECF04F0DDCF05F031EC1FF0F6
:10768000C00E6BEC1EF053C057F054C058F0D890A9
:1076900057365836D89057365836600E5724596E9C
:1076A000000E58205A6ED8905534D96E5634DA6E82
:1076B0005950D9265A50DA22DECF04F0DDCF05F03A
:1076C00031EC1FF00A0E9FEC1CF053C057F054C071
:1076D00058F0D89057365836D89057365836800ECE
:1076E0005724596E000E58205A6ED8905534D96ED2
:1076F0005634DA6E5950D9265A50DA22DECF02F0CB
:10770000DDCF03F098EC20F00A0E9FEC1CF053C084
:1077100057F054C058F0D89057365836D89057364E
:107720005836600E5724596E000E58205A6ED89065
:107730005534D96E5634DA6E5950D9265A50DA2259
:10774000DECF02F0DDCF03F098EC20F0030E5318EB
:107750005410D8A4AEEF3BF0B0EF3BF038EF3CF064
:10776000800E6BEC1EF053C057F054C058F0D89008
:1077700057365836D89057365836800E5724596E9B
:10778000000E58205A6ED8905534D96E5634DA6EA1
:107790005950D9265A50DA22DECF04F0DDCF05F059
:1077A00031EC1FF0C00E6BEC1EF053C057F054C00C
:1077B00058F0D89057365836D89057365836600E0D
:1077C0005724596E000E58205A6ED8905534D96EF1
:1077D0005634DA6E5950D9265A50DA22DECF04F0E8
:1077E000DDCF05F031EC1FF00A0E9FEC1CF053C00A
:1077F00057F054C058F0D89057365836D89057366E
:107800005836800E5724596E000E58205A6ED89064
:107810005534D96E5634DA6E5950D9265A50DA2278
:10782000DECF02F0DDCF03F098EC20F00A0E9FECE3
:107830001CF053C057F054C058F0D8905736583603
:10784000D89057365836600E5724596E000E58207F
:107850005A6ED8905534D96E5634DA6E5950D926AE
:107860005A50DA22DECF02F0DDCF03F098EC20F0A0
:10787000040E53185410D8A440EF3CF042EF3CF0F3
:10788000EAEF3CF0800E6BEC1EF053C057F054C092
:1078900058F0D89057365836D89057365836800E0C
:1078A0005724596E000E58205A6ED8905534D96E10
:1078B0005634DA6E5950D9265A50DA22DECF04F007
:1078C000DDCF05F031EC1FF0C00E6BEC1EF053C0A5
:1078D00057F054C058F0D89057365836D89057368D
:1078E0005836600E5724596E000E58205A6ED890A4
:1078F0005534D96E5634DA6E5950D9265A50DA2298
:10790000DECF04F0DDCF05F031EC1FF0000E146E79
:10791000000E136E000E166E000E156E82EC23F034
:1079200013C04AF014C04BF0D7EC20F00A0E9FECC5
:107930001CF053C057F054C058F0D8905736583602
:10794000D89057365836800E5724596E000E58205E
:107950005A6ED8905534D96E5634DA6E5950D926AD
:107960005A50DA22DECF02F0DDCF03F098EC20F09F
:107970000A0E9FEC1CF053C057F054C058F0D8903A
:1079800057365836D89057365836600E5724596EA9
:10799000000E58205A6ED8905534D96E5634DA6E8F
:1079A0005950D9265A50DA22DECF02F0DDCF03F04B
:1079B00098EC20F0000E146E000E136E000E166E82
:1079C000000E156E82EC23F013C051F014C052F07B
:1079D00016EC21F0050E53185410D8A4F2EF3CF029
:1079E000F4EF3CF09CEF3DF0800E6BEC1EF053C0CA
:1079F00057F054C058F0D89057365836D89057366C
:107A00005836800E5724596E000E58205A6ED89062
:107A10005534D96E5634DA6E5950D9265A50DA2276
:107A2000DECF04F0DDCF05F031EC1FF0C00E6BECC3
:107A30001EF053C057F054C058F0D89057365836FF
:107A4000D89057365836600E5724596E000E58207D
:107A50005A6ED8905534D96E5634DA6E5950D926AC
:107A60005A50DA22DECF04F0DDCF05F031EC1FF002
:107A7000000E146E000E136E000E166E010E156EC3
:107A800082EC23F013C04AF014C04BF0D7EC20F086
:107A90000A0E9FEC1CF053C057F054C058F0D89019
:107AA00057365836D89057365836800E5724596E68
:107AB000000E58205A6ED8905534D96E5634DA6E6E
:107AC0005950D9265A50DA22DECF02F0DDCF03F02A
:107AD00098EC20F00A0E9FEC1CF053C057F054C0F5
:107AE00058F0D89057365836D89057365836600EDA
:107AF0005724596E000E58205A6ED8905534D96EBE
:107B00005634DA6E5950D9265A50DA22DECF02F0B6
:107B1000DDCF03F098EC20F0000E146E000E136E13
:107B2000000E166E010E156E82EC23F013C051F09C
:107B300014C052F016EC21F0060E53185410D8A4BD
:107B4000A4EF3DF0A6EF3DF04EEF3EF0800E6BEC63
:107B50001EF053C057F054C058F0D89057365836DE
:107B6000D89057365836800E5724596E000E58203C
:107B70005A6ED8905534D96E5634DA6E5950D9268B
:107B80005A50DA22DECF04F0DDCF05F031EC1FF0E1
:107B9000C00E6BEC1EF053C057F054C058F0D89094
:107BA00057365836D89057365836600E5724596E87
:107BB000000E58205A6ED8905534D96E5634DA6E6D
:107BC0005950D9265A50DA22DECF04F0DDCF05F025
:107BD00031EC1FF0000E146E010E136E000E166EC7
:107BE000000E156E82EC23F013C04AF014C04BF067
:107BF000D7EC20F00A0E9FEC1CF053C057F054C095
:107C000058F0D89057365836D89057365836800E98
:107C10005724596E000E58205A6ED8905534D96E9C
:107C20005634DA6E5950D9265A50DA22DECF02F095
:107C3000DDCF03F098EC20F00A0E9FEC1CF053C04F
:107C400057F054C058F0D89057365836D890573619
:107C50005836600E5724596E000E58205A6ED89030
:107C60005534D96E5634DA6E5950D9265A50DA2224
:107C7000DECF02F0DDCF03F098EC20F0000E146EA2
:107C8000010E136E000E166E000E156E82EC23F0C0
:107C900013C051F014C052F016EC21F0070E531827
:107CA0005410D8A456EF3EF058EF3EF000EF3FF0EE
:107CB000800E6BEC1EF053C057F054C058F0D890B3
:107CC00057365836D89057365836800E5724596E46
:107CD000000E58205A6ED8905534D96E5634DA6E4C
:107CE0005950D9265A50DA22DECF04F0DDCF05F004
:107CF00031EC1FF0C00E6BEC1EF053C057F054C0B7
:107D000058F0D89057365836D89057365836600EB7
:107D10005724596E000E58205A6ED8905534D96E9B
:107D20005634DA6E5950D9265A50DA22DECF04F092
:107D3000DDCF05F031EC1FF0000E146E010E136E56
:107D4000000E166E010E156E82EC23F013C04AF081
:107D500014C04BF0D7EC20F00A0E9FEC1CF053C07F
:107D600057F054C058F0D89057365836D8905736F8
:107D70005836800E5724596E000E58205A6ED890EF
:107D80005534D96E5634DA6E5950D9265A50DA2203
:107D9000DECF02F0DDCF03F098EC20F00A0E9FEC6E
:107DA0001CF053C057F054C058F0D890573658368E
:107DB000D89057365836600E5724596E000E58200A
:107DC0005A6ED8905534D96E5634DA6E5950D92639
:107DD0005A50DA22DECF02F0DDCF03F098EC20F02B
:107DE000000E146E010E136E000E166E010E156E4F
:107DF00082EC23F013C051F014C052F016EC21F0C5
:107E000012000070726F746F636F6C6F20696E7612
:107E1000616C69646F207C20696E76616C69642096
:107E200070726F746F636F6C005741524E494E47CA
:107E30003A2048494748205468726573686F6C64FB
:107E40002052656163686564005741524E494E4750
:107E50003A204C4F57205468726573686F6C6420E9
:107E60005265616368656400414C455254413A2053
:107E70004C696D69746520424149584F20417469CD
:107E80006E6769646F00414C455254413A204C6919
:107E90006D69746520414C544F204174696E676967
:107EA000646F004572726F723A20696E76616C6918
:107EB000642070726F6D70742076616C756500411E
:107EC0006C61726D2031204C6F77202020202000C3
:107ED000416C61726D2032204C6F77202020202071
:107EE00000416C61726D2031204869676820202054
:107EF0002000416C61726D20322048696768202043
:107F00002020004368616E676520616C61726D209E
:107F100020202000456E676C697368202020202097
:107F20002020200053656E736F72203120202020A6
:107F30002020200053656E736F7220322020202095
:107F400020202000506F72747567756573202020A3
:107F500020202000416C61726D65203120616C74BD
:107F60006F202000416C61726D65203220616C745D
:107F70006F202000416C7465726172206964696FC2
:107F80006D612000416C746572617220616C617278
:107F90006D652000416C61726D6520312062616900
:107FA000786F2000416C61726D65203220626169DA
:107FB000786F20004368616E6765206C616E67753D
:107FC0006167650053454E534F5220313A00534587
:107FD0004E534F5220323A0056616C7565203A205C
:107FE0000056616C6F72203A200020202141002051
:0F7FF0002021420020202148002020214C0000A9
:020000040020DA
:08000000FFFFFFFFFFFFFFFF00
:020000040030CA
:0E000000000C7100FF8380FF0FC00FE00F4067
:00000001FF
